{
    "_format": "hh-sol-artifact-1",
    "contractName": "Token",
    "sourceName": "contracts/Token.sol",
    "abi": [
        {
            "inputs": [],
            "stateMutability": "nonpayable",
            "type": "constructor"
        },
        {
            "inputs": [
                {
                    "internalType": "address",
                    "name": "account",
                    "type": "address"
                }
            ],
            "name": "balanceOf",
            "outputs": [
                {
                    "internalType": "uint256",
                    "name": "",
                    "type": "uint256"
                }
            ],
            "stateMutability": "view",
            "type": "function"
        },
        {
            "inputs": [
                {
                    "internalType": "address",
                    "name": "to",
                    "type": "address"
                },
                {
                    "internalType": "uint256",
                    "name": "amount",
                    "type": "uint256"
                }
            ],
            "name": "transfer",
            "outputs": [],
            "stateMutability": "nonpayable",
            "type": "function"
        }
    ],
    "bytecode": "0x60806040526040518060400160405280600e81526020017f49616e205068756120546f6b656e0000000000000000000000000000000000008152506000908051906020019061004f9291906100fb565b506040518060400160405280600381526020017f49505400000000000000000000000000000000000000000000000000000000008152506001908051906020019061009b9291906100fb565b50620f42406002553480156100af57600080fd5b50600254600360003373ffffffffffffffffffffffffffffffffffffffff1673ffffffffffffffffffffffffffffffffffffffff168152602001908152602001600020819055506101ff565b8280546101079061019e565b90600052602060002090601f0160209004810192826101295760008555610170565b82601f1061014257805160ff1916838001178555610170565b82800160010185558215610170579182015b8281111561016f578251825591602001919060010190610154565b5b50905061017d9190610181565b5090565b5b8082111561019a576000816000905550600101610182565b5090565b600060028204905060018216806101b657607f821691505b602082108114156101ca576101c96101d0565b5b50919050565b7f4e487b7100000000000000000000000000000000000000000000000000000000600052602260045260246000fd5b6104918061020e6000396000f3fe608060405234801561001057600080fd5b50600436106100365760003560e01c806370a082311461003b578063a9059cbb1461006b575b600080fd5b6100556004803603810190610050919061022c565b610087565b60405161006291906102e3565b60405180910390f35b61008560048036038101906100809190610255565b6100d0565b005b6000600360008373ffffffffffffffffffffffffffffffffffffffff1673ffffffffffffffffffffffffffffffffffffffff168152602001908152602001600020549050919050565b80600360003373ffffffffffffffffffffffffffffffffffffffff1673ffffffffffffffffffffffffffffffffffffffff168152602001908152602001600020541015610152576040517f08c379a0000000000000000000000000000000000000000000000000000000008152600401610149906102c3565b60405180910390fd5b80600360003373ffffffffffffffffffffffffffffffffffffffff1673ffffffffffffffffffffffffffffffffffffffff16815260200190815260200160002060008282546101a19190610365565b9250508190555080600360008473ffffffffffffffffffffffffffffffffffffffff1673ffffffffffffffffffffffffffffffffffffffff16815260200190815260200160002060008282546101f7919061030f565b925050819055505050565b6000813590506102118161042d565b92915050565b60008135905061022681610444565b92915050565b60006020828403121561023e57600080fd5b600061024c84828501610202565b91505092915050565b6000806040838503121561026857600080fd5b600061027685828601610202565b925050602061028785828601610217565b9150509250929050565b600061029e6011836102fe565b91506102a982610404565b602082019050919050565b6102bd816103cb565b82525050565b600060208201905081810360008301526102dc81610291565b9050919050565b60006020820190506102f860008301846102b4565b92915050565b600082825260208201905092915050565b600061031a826103cb565b9150610325836103cb565b9250827fffffffffffffffffffffffffffffffffffffffffffffffffffffffffffffffff0382111561035a576103596103d5565b5b828201905092915050565b6000610370826103cb565b915061037b836103cb565b92508282101561038e5761038d6103d5565b5b828203905092915050565b60006103a4826103ab565b9050919050565b600073ffffffffffffffffffffffffffffffffffffffff82169050919050565b6000819050919050565b7f4e487b7100000000000000000000000000000000000000000000000000000000600052601160045260246000fd5b7f4e6f7420656e6f75676820746f6b656e73000000000000000000000000000000600082015250565b61043681610399565b811461044157600080fd5b50565b61044d816103cb565b811461045857600080fd5b5056fea26469706673582212200755cb270aa884048463c50b18376416bfd79c1f0829e6661d16921cfb5bf5d664736f6c63430008040033",
    "linkReferences": {},
    "deployedLinkReferences": {}
}